:020000040800F2
:10000000B0080020C50000081D1C00086D1900087C
:1000100000000000000000000000000000000000E0
:100020000000000000000000000000009F1D00080C
:1000300000000000000000009D1D0008A11D000838
:10004000D700000800000000D7000008D700000813
:10005000D7000008D7000008D7000008D700000824
:1000600000000000D700000899030008D70000082E
:10007000D7000008D7000008D700000800000000E3
:10008000D70000080000000000000000D7000008B2
:1000900000000000D7000008D7000008D7000008C3
:1000A00000000000D7000008000000002123000825
:1000B0000348854600F0F8F800480047C5290008C5
:1000C000B00800200448804704480047FEE7FEE7E8
:1000D000FEE7FEE7FEE7FEE72B1E0008B100000882
:1000E00030B50B46014600202022012409E00D46D0
:1000F000D5409D4205D31D469540491B2546954058
:1001000040191546521E002DF1DC30BD70B500249B
:100110002546002801DA01244042002901DA0125A0
:100120004942FFF7DDFFAC4200D04042002C00D036
:10013000494270BDF0B51FB40646002082B00546A6
:100140004024019100901BE0019922460F46304661
:1001500000F020F8049A059B801A994110D31046AC
:100160001946224600F057F8361A8F410197224669
:1001700001200021009F00F04EF838184D410090FA
:100180002046641E0028DFDC019B00982946324689
:1001900007B0F0BD10B5202A04DB0846203AD04055
:1001A000002110BD0B46D340D0402024A21A91401C
:1001B0000843194610BDD2B201E00270401C491E2E
:1001C000FBD270470022F6E710B513460A460446F4
:1001D0001946FFF7F0FF204610BD30B50546002058
:1001E00008E00A4602E0A34207D0521C1378002B15
:1001F000F9D1401C2C5C002CF3D130BD70B5064603
:1002000002F0EAF8046805460A220021304600F0B0
:1002100013F82C6070BD10B5202A04DB0146203A8B
:100220009140002010BD914020239C1A0346E340DA
:100230001943904010BD0000F7B5009C0F46002602
:100240002578641C002D05D000F040F80068405D62
:10025000C007F5D12B2D02D02D2D18D0641E3946A4
:100260002046029A00F036F8002F04D03968A142E7
:1002700001D1009939607105022400290BDA40424E
:10028000002803DD02F0A8F80460A007FEBD0120ED
:1002900080020643E3E70028F8DA02F09DF80460E4
:1002A0000048FEBDFFFFFF7F064C0125064E05E01E
:1002B000E36807CC2B430C3C98471034B442F7D387
:1002C000FFF7FAFED8370008F837000800487047F3
:1002D000D4370008F7B582B0029C00272078641C50
:1002E00015460197302802D0002D15D015E0207852
:1002F0000127641C782804D0582802D0002D09D08A
:100300000BE0002D01D0102D07D1002710252078FB
:10031000641C02E0082500E00A250026009610E093
:100320000099012769430818020C294680B27143DD
:1003300000908E183804864201D301200190207865
:10034000641C294600F019F80028E9DA039800280F
:1003500005D0002F01D0641E00E0029C04600198CB
:10036000002806D002F038F802210160C81E05B04E
:10037000F0BD009930040843F9E73A2800D230383C
:10038000202302469A43412A01D310463738884237
:1003900001D30020C043704710B5024800F056F862
:1003A00010BD00003003002010B50446054A216846
:1003B000881A1421FFF794FE800020640148083851
:1003C000E06310BD0800024030B50124056CAC406C
:1003D000C56B6C60046863604468102C04D10468C9
:1003E000A2600468E16003E00468A1600468E26060
:1003F00030BD704770B5044600252120005D0228FD
:1004000003D00420A06301251EE0206800680E21AF
:10041000884321680860206800684008400021681F
:1004200008600120216C8840E16B48600121212097
:10043000015500BF00212020015500BF606B00283E
:1004400002D02046616B8847284670BD70B50446CF
:10045000E06B0568206806680420216C884028400D
:1004600000281BD004203040002817D020680068E6
:1004700020210840002805D1206800680421884315
:10048000216808600420216C8840E16B4860E06AC4
:10049000002852D02046E16A88474EE00220216CB5
:1004A00088402840002823D00220304000281FD058
:1004B0002068006820210840002808D120680068D2
:1004C0000A2188432168086001212120015502206A
:1004D000216C8840E16B486000BF0021202001555D
:1004E00000BFA06A002828D02046A16A884724E0DF
:1004F0000820216C8840284000281ED00820304069
:1005000000281AD0206800680E21884321680860FE
:100510000120216C8840E16B48600120A06301212B
:100520002120015500BF00212020015500BF206B74
:10053000002802D02046216B884770BD70B5044664
:100540000025002C01D1012070BD02212120015580
:10055000206805680F480540A16860680843E168A5
:1005600008432169084361690843A1690843E169B7
:1005700008430543206805602046FFF715FF00206B
:10058000A0630121212001550021202001550020D8
:10059000DAE700000FC0FFFFF8B504460D46164627
:1005A0001F460020009000BF2020005D012801D1DF
:1005B0000220F8BD01212020015500BF2120005D4F
:1005C00001282DD10221212001550020A06320689F
:1005D000006840084000216808603B4632462946D2
:1005E0002046FFF7F1FEE06A002806D02068006888
:1005F0000E210843216808600BE0206800680A218A
:100600000843216808602068006804218843216845
:10061000086020680068012108432168086006E03E
:1006200000BF00212020015500BF0220009000984B
:10063000BFE7000070B5044600F016F906462546EF
:10064000681C002802D0054800782D1800BF00F073
:100650000BF9801BA842FAD370BD000048000020AF
:1006600078B503460022DDE0012696400C68344050
:10067000002C7DD04D68022D02D04D68122D15D171
:10068000D508AE001D462035A8595507EE0E0F259A
:10069000B5400646AE4330465607F60E0D69B540E6
:1006A0002843D508AD001E46203670511868560004
:1006B0000325B5400646AE4330460D79AD07AD0F74
:1006C0005600B540284318604D68012D08D04D688C
:1006D000022D05D04D68112D02D04D68122D18D174
:1006E000986856000325B5400646AE43304656008E
:1006F000CD68B54028439860586801259540064666
:10070000AE43304610264D6835402D0995402843AC
:100710005860D86856000325B5400646AE433046BB
:1007200056008D68B5402843D860012636074D68CD
:100730003540B54275D100BF3D4DAD690126354309
:100740003B4EB5613546AD69ED07ED0F009500BF35
:1007500000BF384D9608B600A85995072E0F0F25F3
:10076000B5400646AE4330460925ED06AB4200E0F3
:1007700057E001D100250FE02F4DAB4201D10125FB
:100780000AE02E4DAB4201D1022505E02C4DAB42D3
:1007900001D1032500E005259607360FB540284313
:1007A000244D9608B600A851264D28680546A54355
:1007B0002846012636044D683540B54202D105462B
:1007C000254328461F4D286068680546A5432846EE
:1007D000012676044D683540B54202D105462543D1
:1007E0002846184D6860A8680546A5432846012696
:1007F00036054D683540B54202D1054625432846A9
:10080000104DA860E8680546A543284601267605F0
:100810004D683540B54202D1054625432846094D6D
:10082000E860521C0D68D540002D00D01CE778BD53
:100830000010024008000140000400480008004881
:10084000000C004800040140024613690B40002BD5
:1008500001D0012000E000207047002A01D0816112
:1008600000E08162704700000148006870470000A6
:1008700040000020034800680349097840180149F6
:1008800008607047400000204800002010B506486E
:1008900000681021084304490860002000F006F8B1
:1008A00000F02EF8002010BD0020024070B5044674
:1008B000104801787D20C000FFF712FC0646314643
:1008C0000D480068FFF70CFC054600F0A1FD00286C
:1008D00001D0012070BD042C07D200222146501EF9
:1008E00000F03CF80548046001E00120F2E7002038
:1008F000F0E70000480000204C00002044000020E9
:1009000008B500BF0D488069012108430B49886183
:1009100008468069C007C00F009000BF00BF00BF3D
:100920000846C069090408430449C8610846C0690B
:1009300009040840009000BF00BF08BD001002403D
:100940000146002905DBCB06DB0E01229A40024B53
:100950001A6000BF7047000000E100E070B5044677
:100960000D4616462946204601F0FAFC70BD0000EF
:10097000F8B5044600260025012109042068084036
:1009800088427AD100274B48C069090308400028F3
:100990000DD100BF4748C06908434649C8610846B1
:1009A000C06909040840009000BF00BF0127424809
:1009B0000068FF2101310840002816D13E48006838
:1009C00008433D490860FFF74FFF064606E0FFF782
:1009D0004BFF801B642801D90320F8BD364800680E
:1009E000FF21013108400028F1D03248006A03217C
:1009F000090208400546002D2DD060680840A84235
:100A000029D02C48006A884305462A48006A0121FB
:100A100009040843274908620846006A01210904BD
:100A200088432449086208460562E807C00F002889
:100A300011D0FFF719FF064607E0FFF715FF801BEF
:100A40001E49884201D90320C7E71A48006A0221DB
:100A500008400028F1D01748006A032109028843A2
:100A60006168084313490862012F05D10846C0692F
:100A7000090488430F49C86100BF2078C007C00F30
:100A8000002807D00B48006B80088000A16808434D
:100A900008490863202120680840202807D105481C
:100AA000006B10218843E168084302490863002075
:100AB00093E700000010024000700040881300001F
:100AC00070B504460D46002C01D1012070BD52487E
:100AD0000068C007C00FA8420ED24F480068400807
:100AE000400028434C49086008460068C007C00F12
:100AF000A84201D00120E9E702212068084002282D
:100B000014D1042120680840042807D143484068D4
:100B10000721090288434018404948603F4840681F
:100B2000F0218843A16808433C4948602078C00709
:100B3000C00F00283BD06068012808D13748006802
:100B4000012149040840002815D10120BEE7606852
:100B5000022808D1314800680121490608400028D0
:100B600009D10120B2E72D48006802210840002881
:100B700001D10120AAE72948406880088000616807
:100B8000084326494860FFF76FFE064607E0FFF777
:100B90006BFE801B2249884201D9032096E71F483B
:100BA00040680C210840616889008842EFD11A48EA
:100BB0000068C007C00FA8420ED917480068400857
:100BC000400028431449086008460068C007C00F69
:100BD000A84201D0012079E70421206808400428B8
:100BE00008D10E484068072109028843E16808439C
:100BF0000A49486000F032F808494968F02211407B
:100C00000909084A515CC840074908600020FFF7FD
:100C10004DFE00205AE70000002002400010024074
:100C2000881300003B3700084C0000200148006892
:100C3000704700004C00002000B5FFF7F7FF0549A2
:100C40004968072212021140090A034A515CC84050
:100C500000BD0000001002404B370008F0B589B01D
:100C600027A001460EC9C06805AC0EC4089028A094
:100C700001460EC9C06801AC0EC4049000240025D2
:100C80000027002600200090254844680C202040C2
:100C900000282DD0042802D0082828D102E02148BD
:100CA000009028E00F2080042040800C05A90E5CF5
:100CB0001B48C06A0007000F01A90D5C0120000459
:100CC00020400121090488420AD12A460023154800
:100CD0001946FFF72FFA314601F02AFB074604E0D8
:100CE0001148314601F024FB0746009703E000BF9E
:100CF0000C48009000BF00BF009809B0F0BD000094
:100D000002030405060708090A0B0C0D0E0F10104C
:100D10000102030405060708090A0B0C0D0E0F104B
:100D20000010024000127A0000093D00FEB50446A2
:100D3000002C01D10120FEBD2078C007C00F002883
:100D400071D0FC4840680C21084004280BD0F948B9
:100D500040680840082812D1F6484068012109047B
:100D6000084088420BD1F34800680121490408403B
:100D700000286BD06068002868D10120DBE700BF45
:100D80006068012807D1EB48006801210904084385
:100D9000E849086031E0606800280ED1E548006845
:100DA000012109048843E3490860084600680121DD
:100DB00089048843DF4908601FE0606805280ED178
:100DC000DC480068012189040843DA4908600846C4
:100DD0000068012109040843D64908600DE0D548A0
:100DE0000068012109048843D24908600846006868
:100DF000012189048843CF49086000BF606800284A
:100E000012D0FFF731FD054606E0FFF72DFD401B30
:100E1000642801D903208EE7C648006801214904EF
:100E200008400028F1D011E0FFF71EFD054606E05E
:100E3000FFF71AFD401B642801D903207BE7BD485A
:100E400000680121490408400028F1D102212068EE
:100E50000840022861D1B74840680C2108400028AA
:100E60000BD0B4484068084008281BD1B1484068FE
:100E7000012109040840002814D1AE48006802216D
:100E80000840002804D0E068012801D0012052E782
:100E9000A8480068F82188432169C9000843A5498A
:100EA00008603AE0E068002820D0A24800680121EC
:100EB0000843A0490860FFF7D7FC054606E0FFF7A6
:100EC000D3FC401B022801D9032034E7994800686D
:100ED000022108400028F2D096480068F821884393
:100EE0002169C90008439349086016E091480068E9
:100EF000400840008F490860FFF7B6FC054606E051
:100F0000FFF7B2FC401B022801D9032013E78948F0
:100F10000068022108400028F2D10821206808401A
:100F2000082831D1E069002817D08248406A0121A1
:100F3000084380494862FFF797FC054606E0FFF743
:100F400093FC401B022801D90320F4E67948406A4B
:100F5000022108400028F2D016E07648406A400896
:100F6000400074494862FFF77FFC054606E0FFF742
:100F70007BFC401B022801D90320DCE66D48406A57
:100F8000022108400028F2D10421206808400428EA
:100F900073D1002001906748C06989060840002885
:100FA0000ED100BF6348C06908436249C861084662
:100FB000C06909040840009000BF00BF01200190F3
:100FC0005D480068FF2101310840002816D15A48C9
:100FD0000068084358490860FFF746FC054606E0EC
:100FE000FFF742FC401B642801D90320A3E65248C6
:100FF0000068FF21013108400028F1D000BFA0683F
:10100000012806D14B48006A01210843494908627A
:101010002BE0A06800280CD14648006A4008400038
:10102000444908620846006A04218843414908622D
:101030001BE0A06805280CD13E48006A0421084343
:101040003C4908620846006A0121084339490862A0
:101050000BE03848006A40084000364908620846FC
:10106000006A042188433349086200BFA068002851
:1010700013D0FFF7F9FB054608E02BE0FFF7F4FB80
:10108000401B2E49884201D9032054E62948006AB2
:10109000022108400028F1D011E0FFF7E5FB0546EA
:1010A00007E0FFF7E1FB401B2449884201D90320F8
:1010B00041E62048006A022108400028F1D1019849
:1010C000012806D11B48C069012109078843194935
:1010D000C86100BF102120680840102860D16069F5
:1010E00001282DD11348406B04210843114948635E
:1010F0000846406B012108430E494863FFF7B4FBE3
:10110000054606E0FFF7B0FB401B022801D903208B
:1011100011E60848406B022108400028F2D005483B
:10112000406BF8218843A169C9000843014948631D
:1011300036E00000001002400070004088130000FC
:101140006069401D00280FD15A48406B0421884334
:10115000584948630846406BF8218843A169C90093
:101160000843544948631BE05248406B042108433C
:10117000504948630846406B400840004863FFF709
:1011800073FB054606E0FFF76FFB401B022801D901
:101190000320D0E54748406B022108400028F2D1E7
:1011A000206A00284FD0434840680C210840082896
:1011B00064D0206A022847D13E4800680121090610
:1011C00088433C490860FFF74FFB054606E0FFF700
:1011D0004BFB401B022801D90320ACE535480068D1
:1011E0000121490608400028F1D100BF3148C06AFA
:1011F00000090001E16A08432E49C862616AA06AD9
:1012000008432C4949683D22120491430843294967
:10121000486000BF084600680121090608432549C7
:101220000860FFF721FB054606E0FFF71DFB401BAA
:10123000022801D903207EE51E48006801214906E5
:1012400008400028F1D033E01A480068012109065F
:10125000884318490860FFF707FB054606E0FFF7DB
:1012600003FB401B022801D9032064E511480068F4
:101270000121490608400028F1D119E0206A01281F
:1012800000D158E50B484668C76A01200004304089
:10129000616A88420AD13907090FE06A814205D1A3
:1012A0000F2080043040A16A884201D0012042E52D
:1012B000002040E50010024070B50446002C01D12A
:1012C000012070BD606A002800D100BF0021A1622A
:1012D0005D20005D002804D15C200155204600F00F
:1012E00059F802215D20015520680068402188439B
:1012F0002168086007210902E068884201D90025B9
:1013000001E001252D030F210902E068884206D083
:1013100007210902E068884201D00021A162206B08
:10132000002809D107210902E068884202D9022178
:10133000216301E001212163A168606808432169FC
:1013400008436169084301225202A1691140084320
:10135000E1690843216A0843A16A084321680860DB
:10136000A069000C04210840616A0843616B0843CE
:10137000E16808432843216848602068C0699100FB
:1013800088432168C8610020206601215D20015545
:10139000002096E710B586B00446142101A8FEF798
:1013A00011FF1949206888422BD100BF1748806976
:1013B00089140843154988610846806989140840E2
:1013C000009000BF00BF00BF1048406949010843BA
:1013D0000E494861084640690121490408400090CF
:1013E00000BF00BFA02001900220029000200390C7
:1013F000032004900020059001A90920C006FFF7F2
:101400002FF906B010BD000000300140001002406E
:1014100070B504462546681E0949884201D9012055
:101420000CE0681E074948610321081F00F098FF7F
:1014300000200449886107200861002070BD000079
:10144000FFFFFF0000E000E070470000FEB504462B
:101450002068C56920680668206887686D4828404C
:101460000190019800280ED12020284000280AD0A1
:1014700020203040002806D0206E002802D02046D0
:10148000216E8847FEBD019800287DD0F807C00F67
:10149000002804D1FF20213030400028F5D0E80793
:1014A000C00F00280BD0FF2001303040002806D0AC
:1014B000012021680862E06F01210843E0670220F3
:1014C000284000280AD0F807C00F002806D00220C4
:1014D00021680862E06F04210843E0670420284087
:1014E00000280AD0F807C00F002806D00420216881
:1014F0000862E06F02210843E067082028400028C6
:101500000ED020203040002803D1F807C00F00285B
:1015100006D0082021680862E06F08210843E067D0
:101520000120C002284000280CD001208006304055
:10153000002807D00120C00221680862E06F202146
:101540000843E067E06F002846D0202028400028AC
:1015500009D020203040002805D0206E002802D07D
:101560002046216E8847E06F009020688068402107
:101570000840402804D0282100980840002826D0A0
:10158000204600F061FD00E027E0206880684021EF
:101590000840402817D12068806888432168886007
:1015A000E06E00280BD01C48E16E4863E06EFEF749
:1015B00021FF002810D0E06E416B88470CE02046E8
:1015C000FFF742FF08E02046FFF73EFF04E0204619
:1015D000FFF73AFF0020E06754E78020284000280A
:1015E0000AD080203040002806D0606E002802D04B
:1015F0002046616E884745E740202840002807D0F4
:1016000040203040002803D0204600F02FFD39E76D
:1016100000BF37E70F0800008D1F000810B5044613
:10162000002C01D1012010BDA069002800D000E0ED
:1016300000BF606F002805D10021702001552046B1
:1016400000F02CF824206067206800684008400003
:1016500021680860204600F023FD012800D1E2E760
:10166000606A002802D0204600F0E0FB2068406855
:101670000121C902884321684860206880680821E8
:101680008843216888602068006801210843216838
:101690000860204600F042FCC5E7000010B586B0A7
:1016A0000446142101A8FEF78DFD2B4920688842CD
:1016B0004FD100BF29488069012189030843274988
:1016C000886108468069012189030840009000BFB5
:1016D00000BF00BF21484069C90008431F49486155
:1016E00008464069012149040840009000BF00BF3E
:1016F0000C2001900220029001200390032004900E
:101700000120059001A90920C006FEF7A9FF144891
:10171000144908600020486000211248816080213F
:10172000C1600021016141618161C161FEF706FF75
:10173000002801D0FEF75DFE00BF0A48E066446263
:1017400000BF002211461B20FFF708F91B20FFF7FE
:10175000F7F806B010BD000000380140001002404C
:10176000300002403003002070B504460D46164696
:10177000A06F202863D1002D01D0002E01D10120BF
:1017800070BD01210903A068884208D120690028A2
:1017900005D1E807C00F002801D00120F0E700BF05
:1017A0007020005D012801D10220E9E701217020AD
:1017B000015500BF6565582006530020E0672220D0
:1017C000A067E06E002820D01E48E16E88621E48A7
:1017D000E16EC8621D48E16E08630020E16E486357
:1017E0002368194624313346626DE06EFEF7D4FE5D
:1017F00000280AD01020E06700BF002170200155AA
:1018000000BF202060670120BAE700BF00217020E0
:10181000015500BF20680068FF210131084321689D
:10182000086020688068012108432168886020687A
:10183000806840210843216888600020A0E70220DA
:101840009EE70000F71F00083B200008A51F0008C6
:1018500010B504463C2202490248FFF785FF10BD3F
:1018600074030020B00200207047FFB583B0044627
:101870000D461746606F202875D1002D01D0002F2E
:1018800002D1012007B0F0BD01210903A068884200
:1018900008D12069002805D1E807C00F002801D031
:1018A0000120EFE700BF7020005D012801D1022078
:1018B000E8E701217020015500BF0020E0672120EA
:1018C0006067FEF7D1FF0190502007535220075365
:1018D00001210903A068884205D12069002802D1AE
:1018E0000026029502E02E460020029021E0069894
:1018F0000090002280212046019B00F0B3FC0028CC
:1019000001D00320BEE7002E09D102980088C0054F
:10191000C00D216808850298801C029003E0307891
:1019200021680885761C5220005B401E81B252203F
:1019300001535220005B0028D9D106980090002264
:1019400040212046019B00F08DFC002801D003209F
:1019500098E72020606700BF00217020015500BF7C
:1019600000208FE7FFE702208CE7704700BFFEE70B
:1019700070B505460021012000F071F800240AE04E
:101980002846203882008018064A8018015D012010
:1019900000F065F8641C052CF2D30021012000F052
:1019A0005EF870BDC62F000810B5044603E020782D
:1019B000641CFFF7DDFF20780028F8D110BD10B5BA
:1019C000002404E00021012000F049F8641CFF20FD
:1019D000F9308442F6DB10BD002003E00021044A08
:1019E0001154401CFF21F9318842F7DB7047000099
:1019F0005400002000B585B0132000900120019014
:101A0000002002900320039069460920C006FEF7DB
:101A100027FE002201210920C006FEF71EFF012239
:101A200011460920C006FEF718FF2121002000F012
:101A300016F8BE21002000F012F81421002000F05A
:101A40000EF81421002000F00AF82021002000F0F8
:101A500006F80C21002000F002F805B000BD70B5BA
:101A600004460D46002C05D1002210210920C00695
:101A7000FEF7F3FE012C05D1012210210920C0063A
:101A8000FEF7EBFE002202210920C006FEF7E5FE6C
:101A9000E8B201F047FA012202210920C006FEF750
:101AA000DCFE70BD08B500BF0A484069012108434B
:101AB0000849486108464069C007C00F009000BF50
:101AC00000BF002211460A20FEF748FF0A20FEF759
:101AD00037FF08BD0010024000B587B0142102A8EE
:101AE000FEF770FB00BF2448406901214904084308
:101AF0002149486108464069012149040840019094
:101B000000BF00BF00BF1C484069490008431A4994
:101B1000486108464069012189040840019000BFDE
:101B200000BF002213210920C006FEF796FE1320F5
:101B300002900120039000200490059002A9092042
:101B4000C006FEF78DFD1920800102900020039051
:101B50000120049002A90920C006FEF781FD0220A1
:101B60000290002003900120049002A90348FEF790
:101B700077FD07B000BD00000010024000040048DF
:101B800010B5134813490860FF2005304860012153
:101B9000C9031048816003210902C160002101616D
:101BA00041610121490281610821C1610021016275
:101BB000416281620721C162002101630821416302
:101BC000FFF77AFB002801D0FEF713FC10BD0000E0
:101BD000003001404C02002010B50E480E4908604C
:101BE0007D208002486000210B488160C160016156
:101BF0000C21416100218161C1610162002006491F
:101C000048620846FFF70AFD002801D0FEF7F1FB05
:101C100010BD000000380140B002002070470000F5
:101C2000F0B505460C461646542D00DBF0BD302CB1
:101C300000DBFBE7002E1CD0E217520F1219D21066
:101C400054235A4352191D4B9A5C2146E3175B0FEC
:101C50005B18DB10DB00E71A0123BB401A43E317D4
:101C60005B0F1B19DB1054277B435B19134FFA548E
:101C70001BE0E217520F1219D21054235A43521983
:101C80000E4B9A5C2146E3175B0F5B18DB10DB0001
:101C9000E71A0123BB409A43E3175B0F1B19DB10C4
:101CA00054277B435B19054FFA5423462A462146A5
:101CB000284600F051F800BFB8E7000054000020AB
:101CC00070B500242EE0601CC0001E4909788842CF
:101CD00000DA25E0E0001C490978884200DD23E0B5
:101CE0004020204301460020FFF7B9FE1748007846
:101CF0008022104301460020FFF7B1FE134805780B
:101D000009E0542060434019114A115C0120FFF79B
:101D1000A6FE681CC5B20F4800788542F1DD00BF01
:101D2000601CC4B2062CCEDB00BF532007490870EC
:101D30000020084908702F2002490870002002493D
:101D4000087070BD02000020030000200000002089
:101D5000540000200100002010B50C4C2478A04253
:101D600001DA0A4C20700A4C2478A24201DD084CAA
:101D70002270084C2478A14201DA064C2170064CEE
:101D80002478A34201DD044C237010BD0000002024
:101D9000010000200200002003000020704770476F
:101DA00010B5FEF767FD10BD00B595B0302109A84C
:101DB000FEF708FA00200590069007900890019021
:101DC0000290039004900220099001200C901020B2
:101DD0000D9002201190002112910521C904139148
:101DE0000021149109A8FEF7A1FF002801D0FEF7F9
:101DF00000FB072005900220069000200790089025
:101E0000012105A8FEF75CFE002801D0FEF7F1FADB
:101E1000012001900020039001A8FEF7A9FD0028F1
:101E200001D0FEF7E6FA15B000BD7047818CC907F6
:101E3000C90F002908D00168496801225204914362
:101E4000826A1143026851600222416A11400229EC
:101E500007D101684968D2039143C26A11430268FD
:101E600051600422416A1140042907D10168496880
:101E700012049143026B1143026851600822416AC7
:101E80001140082907D10168496812039143426B48
:101E90001143026851601022416A1140102907D194
:101EA0000168896812029143826B11430268916054
:101EB0002022416A1140202907D101688968120255
:101EC0009143C26B1143026891604022416A114004
:101ED000402915D10168496892039143026C11436E
:101EE0000268516001221205016C914208D101681B
:101EF0004968032252059143426C114302685160C4
:101F00008022416A1140802907D101684968120383
:101F10009143826C114302685160704738B50446A2
:101F20000020E067FEF7A0FC054620680068082155
:101F3000084008280BD114482B4600228904009041
:101F4000204600F08FF9002801D0032038BD20681A
:101F500000680421084004280BD10B482B460022BE
:101F600009050090204600F07DF9002801D00320EB
:101F7000ECE720206067A06700BF002170200155BA
:101F800000BF0020E2E70000FFFFFF0170B505463B
:101F90006C6A00215A200153522001532046FFF75A
:101FA00053FA70BDF8B505466C6A666FA76F206876
:101FB000806880210840802807D1212E05D100218A
:101FC00052200153204600F061F8206880684021CB
:101FD0000840402807D1222F05D100215A20015363
:101FE000204600F031F8E06F10210843E0672046FA
:101FF000FFF72AFAF8BD70B505466C6AA869202873
:1020000017D000215A20015320680068FF210131B8
:102010008843216808602068806840084000216883
:10202000886020688068402188432168886020207B
:10203000A0672046FFF70CFC70BD70B50446656ACA
:102040002846FFF711FC70BD01680968FF222132A4
:102050009143026811600168896849084900026873
:1020600091602021816700210166704710B5044608
:10207000206800684021884321680860202060674C
:10208000002060662046FFF770FC10BD01680968FB
:10209000C02291430268116020214167704700000F
:1020A000FEB504460027002000902169A06808437F
:1020B00061690843E1690843029020680068644947
:1020C000084002990843216808602068406803219D
:1020D00009038843E168084321684860A0690290C9
:1020E000206A029908430290206880680B21090247
:1020F0008843029908432168886000BF5548006BF7
:102100008007800F002806D0012808D0022808D0B8
:10211000032808D101E0002607E0022605E0042696
:1021200003E0082601E0102600BF00BF00BF012128
:10213000C903E06988424AD1002E06D0022E10D091
:10214000042E16D0082E29D11FE0FEF775FD054696
:102150006A0063685B08D0186168FDF7C1FF87B249
:102160001FE061684A083C4BD018FDF7B9FF87B201
:1021700017E0FEF773FD05466A0063685B08D01838
:102180006168FDF7ADFF87B20BE061684A08012383
:102190001B04D018FDF7A4FF87B202E001200090D5
:1021A00000BF00BF102F0FD32C4887420CD82B48FC
:1021B0000F38384001903807400F019908430190CB
:1021C00001982168C8603EE0012000903BE0002EAD
:1021D00006D0022E0ED0042E14D0082E25D11BE0DE
:1021E000FEF72AFD054661684A085019FDF778FF99
:1021F00087B21DE061684A08194BD018FDF770FFDF
:1022000087B215E0FEF72AFD054661684A085019B5
:10221000FDF766FF87B20BE061684A080123DB0324
:10222000D018FDF75DFF87B202E00120009000BFEB
:1022300000BF102F05D30948874202D82068C76025
:1022400001E0012000900020206660660098FEBD3D
:10225000F369FFFF001002400024F400FFFF0000BC
:1022600000127A00FFB581B004460D4617460A9E5B
:102270004AE0701C002847D0FEF7F6FA0499401A8D
:10228000B04201D8002E17D120680068FF21A1318B
:102290008843216808602068806840084000216801
:1022A000886020206067A06700BF00217020015572
:1022B00000BF032005B0F0BD20680068042108407D
:1022C000002821D02068C06949020840C00A0028BF
:1022D0001AD008462168086220680068FF21A131F1
:1022E00088432168086020688068400840002168B1
:1022F000886020206067A067E06700BF0021702031
:10230000015500BF0320D5E72068C0692840A842D6
:1023100001D1012000E00020B842AAD00020C9E786
:1023200010B50248FFF792F810BD0000B00200207F
:10233000F8B582B28BB2040C0D0C10465843002144
:1023400026465E43370C36048019794116466E43A3
:10235000370C36048019794126466E438919F8BD39
:1023600010B5002819DB1A4A03231B02D218830870
:102370009B00D2588307DC0EFF23A3409A438B07B0
:102380001B0E8407E40EA3401A43114B03242402BE
:102390001B198408A4001A5118E00E4A03071B0FEA
:1023A000083B9B089B00D2588307DC0EFF23A34009
:1023B0009A438B071B0E8407E40EA3401A43054B78
:1023C0000407240F083CA408A4001A5110BD000003
:1023D00000E100E01CED00E00048704750000020E4
:1023E00002E008C8121F08C1002AFAD170477047DE
:1023F000002001E001C1121F002AFBD1704700003C
:1024000010B5002007E0411C89000A4A515882009B
:10241000084B9950401C1428F5DB07490968074A06
:102420001268514308466421FDF770FE01490865B2
:1024300010BD0000580400202000002038000020BB
:1024400010B5002007E0411C89000A4A515882005B
:10245000084B9950401C1428F5DB07490968074AC6
:102460001268514308466421FDF750FE0149086592
:1024700010BD0000040400201400002038000020DB
:1024800010B5002007E0411C8900134A5158820012
:10249000114B9950401C1428F5DB10480068FF21AF
:1024A0009131884202DA08460C4908600B480068FE
:1024B0000B49884202DD0846084908600749096857
:1024C000FF399139074A1268514308460649FDF71A
:1024D0001DFE0149086510BDB00300200C0000205E
:1024E000540B000038000020C409000010B5022180
:1024F000002000F056FA0CA0FFF756FA0321002046
:1025000000F04FFA0AA0FFF74FFA0421002000F074
:1025100048FA09A0FFF748FA0521002000F041FA27
:1025200007A0FFF741FA10BD52616D3A00000000AC
:102530004370753A0000000054656D703A00000069
:10254000436C6F636B3A000010B5022300225321E5
:10255000104600F0B5F902230F225321002000F0AD
:10256000AFF902230F220021084600F0E2F902230E
:102570000F220021532000F0DCF900203A490860C6
:102580006DE0394B1B689B00384CE35C0F24E31A69
:10259000DAB2354B1B785B1C9B005B1ED9B2324B09
:1025A0001B789B06180E012300F08AF92E4A126848
:1025B00092002E4B9A580F23991A2B4A12689000BA
:1025C00002230F2200F0B5F9274A12689200274B28
:1025D0009A580F23991A244A12689200501C022319
:1025E0000F2200F0A6F9204A126892001F4B9A5859
:1025F0000F23991A1C4A12689200901C02230F2282
:1026000000F097F9184A12689200184B9A580F2355
:10261000991A154A12689200D01C02230F2200F06A
:1026200088F911480068002814DD0F4B1B689B00D7
:102630000E4CE3580F24E21A0B4B1B685B1E9B00E9
:102640000A4CE3580F24E11A074B1B68980001233A
:1026500000F06FF904480068401C03490860024814
:10266000006815288DDB10BD34000020B003002069
:1026700010B5022306225321002000F021F9022385
:1026800015225321002000F01BF9022315220621F8
:10269000002000F04EF9022315220621532000F0FD
:1026A00048F900203A4908606DE0394B1B689B00EF
:1026B000384CE35C1524E31ADAB2354B1B785B1C0B
:1026C0009B005B1ED9B2324B1B789B06180E012370
:1026D00000F0F6F82E4A126892002E4B9A581523F5
:1026E000991A2B4A126890000223152200F021F952
:1026F000274A12689200274B9A581523991A244AA0
:1027000012689200501C0223152200F012F9204A90
:10271000126892001F4B9A581523991A1C4A126886
:102720009200901C0223152200F003F9184A126847
:102730009200184B9A581523991A154A126892005C
:10274000D01C0223152200F0F4F81148006800287C
:1027500014DD0F4B1B689B000E4CE3581524E21A46
:102760000B4B1B685B1E9B000A4CE3581524E11AB7
:10277000074B1B689800012300F0DBF80448006851
:10278000401C034908600248006815288DDB10BD15
:10279000340000200404002010B502231A22532123
:1027A000002000F08DF8022329225321002000F0A0
:1027B00087F8022329221A21002000F0BAF8022308
:1027C00029221A21532000F0B4F800203A49086069
:1027D0006DE0394B1B689B00384CE35C2924E31AFD
:1027E000DAB2354B1B785B1C9B005B1ED9B2324BB7
:1027F0001B789B06180E012300F062F82E4A12681F
:1028000092002E4B9A582923991A2B4A126890004D
:102810000223292200F08DF8274A12689200274BE4
:102820009A582923991A244A12689200501C0223AC
:10283000292200F07EF8204A126892001F4B9A5815
:102840002923991A1C4A12689200901C02232922FB
:1028500000F06FF8184A12689200184B9A58292312
:10286000991A154A12689200D01C0223292200F0FE
:1028700060F811480068002814DD0F4B1B689B00AE
:102880000E4CE3582924E21A0B4B1B685B1E9B007D
:102890000A4CE3582924E11A074B1B6898000123CE
:1028A00000F047F804480068401C034908600248EB
:1028B000006815288DDB10BD34000020580400206E
:1028C000F8B504460D4616461F46012F11DDE007F8
:1028D000C00F002803D0F007C00F002807D0E00782
:1028E000C00F002805D1F007C00F002801D0601CE0
:1028F000C4B2A5420EDD009408E0012231460098E2
:10290000FFF78EF90098C019C0B200900098A84255
:10291000F3DD0DE0009508E0012231460098FFF755
:102920007FF90098C019C0B200900098A042F3DD72
:10293000F8BDF8B505460C4616461F46012F10DDBA
:10294000E807C00F002803D0E007C00F002807D019
:10295000E807C00F002804D1E007C00F002800D00E
:10296000641CA6420EDD009408E0009AD1B2E8B2E1
:102970000122FFF755F90098C01900900098B04265
:10298000F3DD0DE0009608E0009AD1B2E8B2012232
:10299000FFF746F90098C01900900098A042F3DDB7
:1029A000F8BD70B504460D46802020430146002046
:1029B000FFF755F84020284301460020FFF74FF865
:1029C00070BD0000FDF762FFFFF7EEF9FFF784F836
:1029D000FFF768F8FFF700F9FFF7D2F83C22FE494D
:1029E000FE48FEF7C1FEFFF705F8FEF7E8FF92E2AA
:1029F00000248DE2F848007800280AD10221FFF770
:102A0000D0FFF7A0FEF7D0FFFEF7E6FFFEF7D7FFF7
:102A10007DE2F7480068012805D1FFF767FD002037
:102A2000F349086073E2F248006802286AD1002185
:102A30000B20FFF7B6FFEFA0FEF7B6FFF0A1E648C8
:102A4000FDF7CBFBEF490860EFA1E348FDF7C5FBBD
:102A5000EE490860EB48006800280FDBEC4B0222CF
:102A6000E8480168491CDC4800F095FAE848FDF7A1
:102A7000C5FBE84908600320E7490860E3480068AF
:102A800000280CDBE54B0322E0480168891CD24892
:102A900000F081FAE148FDF7B1FBE1490860DE484A
:102AA000006803280FD1FFF7CBFCFFF7A9FCFEF766
:102AB00093FFFFF7DDFDFFF76FFE28235022194635
:102AC0001046FFF749F9D4480068032808DB7D2049
:102AD000C000FDF7AFFD0020CF490860FFF7F0F818
:102AE00040210920C006FDF7AFFE002890D1142038
:102AF000FDF7A0FDFEF770FFFEF761FF0120BC4966
:102B0000086004E2BA48006803287DD1C54800681F
:102B1000002806D001280ED0022816D0032828D17C
:102B20001DE0FEF74CFF00210846FFF73AFFBEA06C
:102B3000FEF73AFF2CE0FEF742FF01210020FFF7ED
:102B400030FFB9A0FEF730FF22E0FEF738FF022188
:102B50000020FFF726FFB4A0FEF726FF18E0FEF7DF
:102B60002EFF03210020FFF71CFFAFA0FEF71CFF84
:102B70000EE0AC480068022802DD0020A949086088
:102B8000A8480068002802DA0220A649086000BFB1
:102B900000BF00210920FFF704FFA4A0FEF704FFF7
:102BA00001210920FFF7FDFEA3A0FEF7FDFE022193
:102BB0000920FFF7F6FEA3A0FEF7F6FE0321092089
:102BC000FFF7EFFEA2A0FEF7EFFE0221A248FDF7FD
:102BD0003BFE002808D1C820FDF72CFD9148006875
:102BE000401C9049086092E1012189020920C00639
:102BF000FDF72AFE00280AD1C820FDF71BFD8948F1
:102C00000068401E874900E031E008607FE1012153
:102C100049020920C006FDF717FE0028E3D1C820AD
:102C2000FDF708FD7F480068002806D001280BD07A
:102C3000022810D0032819D114E06423092287A1A7
:102C40006648FEF712FE11E064230C2286A1634859
:102C5000FEF70BFE0AE06423092286A15F48FEF717
:102C600004FE03E001206249086000BF4FE1022139
:102C70001B20FFF796FE82A15748FDF7AEFA614987
:102C80000860554A0968491C505CFEF771FE524ABB
:102C90005C490968891C505CFEF76AFE4E4A594936
:102CA0000968C91C505CFEF763FE76A0FEF77CFE47
:102CB00003211B20FFF775FE53A14748FDF78DFA4E
:102CC00050490860554B032208460168891C424858
:102CD00000F061F951490878FEF74AFE4F494878FB
:102CE000FEF746FE4D4880787C2802D120204B49D3
:102CF00088704A48FDF782FA494908604749887850
:102D0000FEF736FE04212320FFF74BFE3CA132489C
:102D1000FDF763FA3B4908603D4B02220846016813
:102D2000491C2D4800F037F939490878FEF720FE94
:102D300037494878FEF71CFE3548FDF75FFA3549FC
:102D4000086051A0FEF730FE05212820FFF729FE7C
:102D50004EA12148FDF741FA2A4908604CA11E48BE
:102D6000FDF73BFA2949086026480068002829DB5E
:102D7000484B042223480168491C174800F00BF90E
:102D800044490878FEF7F4FD42494878FEF7F0FD23
:102D900040498878FEF7ECFD3E48C0785C2802D1B7
:102DA00020203C49C8703B49C878FEF7E1FD3AA0B5
:102DB000FEF7FAFD0320184908603648FDF71EFAB1
:102DC0003649086014480068032871D1FFF758FBA2
:102DD000FEF702FE64E06BE074030020B002002006
:102DE000436F6E656374616E646F2E2E0000000089
:102DF0000800002054656D702F4C6F616400000066
:102E000059000000240000204B0000002800002092
:102E100018000020140000202C0000201A000020C0
:102E2000200000203C0000203E0000005A656E207B
:102E30004D6F646500000000547572626F204D6F25
:102E400064650000436F6E7472617374000000006B
:102E50004578697400000000000400485A656E203F
:102E60004D6F64650A000000547572626F204D6FEB
:102E700064650A00436F6E74726173740A00000027
:102E80005200000047420000430000004A000000DA
:102E90005C00000010000020487A00000C000020B8
:102EA000FFF752FB0A23282219461046FEF754FF6B
:102EB00019480068032808DB7D20C000FDF7BAFB35
:102EC000002015490860FEF7FBFE40210920C006DE
:102ED000FDF7BAFC00280AD10A20FDF7ABFBFEF78C
:102EE0007BFDFEF76CFD02200C4908600FE002211B
:102EF0000B48FDF7A9FC002809D16420FDF79AFBD7
:102F0000FEF76AFDFEF75BFD032004490860641CC0
:102F10003C2C00D26EE56BE52C0000200800002060
:102F20000004004830B585B00446A0200090012080
:102F30000190002002900320039069460920C006FA
:102F4000FDF78EFB08251EE080202040002806D0DB
:102F5000012280210920C006FDF77FFC05E0002248
:102F600080210920C006FDF778FC012220210920DC
:102F7000C006FDF772FC6006040E00222021092025
:102F8000C006FDF76AFC2846691ECDB20028DBD1D9
:102F9000204605B030BD70B505460C46002600E061
:102FA000761CA85D0028FBD1A018B04200DD321BC2
:102FB000002103E06018285C5854491C9142F9DB59
:102FC0000020585470BD000000000000005F0000A9
:102FD0000007000700147F147F14242A7F2A12237D
:102FE0001308646236495522500005030000001C96
:102FF0002241000041221C0014083E081408083E2B
:103000000808005030000008080808080060600048
:103010000020100804023E5149453E00427F400016
:1030200042615149462141454B311814127F102706
:10303000454545393C4A494930017109050336493E
:10304000494936064949291E0036360000005636E1
:103050000000081422410014141414140041221416
:10306000080201510906324979413E7E1111117E53
:103070007F494949363E414141227F4141221C7FDF
:10308000494949417F090909013E4149497A7F0877
:1030900008087F00417F41002040413F017F081424
:1030A00022417F404040407F020C027F7F04081095
:1030B0007F3E4141413E7F090909063E4151215E63
:1030C0007F09192946464949493101017F01013FDC
:1030D0004040403F1F2040201F3F4038403F631486
:1030E00008146307087008076151494543007F4190
:1030F000410002040810200041417F000402010247
:1031000004404040404000010204002054545478E0
:103110007F484444383844444420384444487F3845
:1031200054545418087E0901020C5252523E7F0832
:1031300004047800447D40002040443D007F102876
:10314000440000417F40007C041804787C0804049B
:103150007838444444387C14141408081414187C37
:103160007C080404084854545420043F4440203C44
:103170004040207C1C2040201C3C4030403C4428E7
:103180001028440C5050503C4464544C44000836C1
:10319000410000007F0000004136080010080810C0
:1031A0000800060909060000707000007C7C000021
:1031B0007F7F00000003077F07030007050700600B
:1031C0007F787F6000000000000000000000000029
:1031D00000000000000000000000000000000000EF
:1031E00000000000000000000000000000000000DF
:1031F00000000000000000000000000000000000CF
:1032000000000000000000000000000000000000BE
:1032100000000000000000000000000000000000AE
:10322000000000000000000000000000000000009E
:10323000000000000000000000000000000000008E
:10324000000000000000000000000000000000007E
:10325000000000000000000000000000000000006E
:10326000000000000000000000000000000000005E
:103270000000C0F83C0E06060E0EFEFE60606060A8
:10328000FEFE000206FEFE060600FEFE66667E3CB0
:1032900000FEFEF8BC1E0E000000C0F0FCFEFEF8B2
:1032A0008000FEFE060E0C1CF8F000FEFE66666650
:1032B000662200FEFE60606060FEFE00000000000E
:1032C00000000000000000010707060607030007D2
:1032D00007000000000707000406070706060007AE
:1032E0000700000000000F07010307060606070796
:1032F0000100000107070003070606060707010093
:10330000030706060606040007070000000007077B
:1033100000000000000000000000000000000000AD
:10332000000000000000000000000000000000009D
:10333000000000000000000000000000000000008D
:10334000000000000000000000000000000000007D
:10335000000000000000000000000000000000006D
:10336000000000000000000000000000000000005D
:10337000000000000000000000000000000000004D
:10338000000000000000000000000000000000003D
:10339000000000000000000000000000000000002D
:1033A000000000000000000000000000000000001D
:1033B0000000000000000000000000000000002FDE
:1033C000000000000700070000147F147F14002491
:1033D0002A7F2A1200323408162600364955225018
:1033E00000000503000000001C22410000004122F3
:1033F0001C000014083E08140008083E08080000DD
:10340000005030000010101010100000606000002C
:10341000002010080402003E5149453E0000427F52
:103420004000004261514946002141454B3100189E
:1034300014127F10002745454539003C4A49493060
:10344000000171090503003649494936000649491A
:10345000291E000036360000000056360000000825
:103460001422410000141414141400004122140802
:1034700000020151090600324959513E007E1111E6
:10348000117E007F49494936003E41414122007F7B
:103490004141221C007F49494941007F0909090136
:1034A000003E4149497A007F0808087F0000417FBB
:1034B0004100002040413F01007F08142241007F6D
:1034C00040404040007F020C027F007F0408107FD4
:1034D000003E4141413E007F09090906003E41513D
:1034E000215E007F091929460046494949310001FA
:1034F000017F0101003F4040403F001F2040201F4E
:10350000003F4038403F0063140814630007087010
:10351000080700615149454300007F4141000055C3
:103520002A552A55000041417F000004020102048F
:10353000004040404040000001020400002054547C
:103540005478007F484444380038444444200038CC
:103550004444487F00385454541800087E0901023E
:10356000000C5252523E007F080404780000447D53
:103570004000002040443D00007F1028440000002F
:10358000417F4000007C04180478007C0804047823
:10359000003844444438007C1414140800081414FF
:1035A000187C007C0804040800485454542000048B
:1035B0003F444020003C4040207C001C2040201C18
:1035C000003C4030403C004428102844000C50503F
:1035D000503C004464544C4400007F3E1C080008EA
:1035E0001C3E7F0000087C7E7C0800103E7E3E1062
:1035F000003E3E3E3E3E00007F3E1C0800000000B4
:103600000017000300031F0A1F0A1F050904120FF9
:10361000171C000300000E11110E00050205040E18
:10362000041008000404040010000804021F111F05
:10363000121F101D151711151F07041F17151D1F29
:10364000151D01011F1F151F17151F000A00100A65
:1036500000040A110A0A0A110A040115030E1516BC
:103660001E051E1F150A0E11111F110E1F15151F05
:1036700005050E151D1F041F111F1108100F1F0433
:103680001B1F10101F061F1F0E1F0E110E1F0502FD
:103690000E111E1F0D16121509011F010F100F0725
:1036A00018071F0C1F1B041B031C031915131F11E4
:1036B0000002040800111F02010210101001020094
:1036C0001A161C1F120C0C12120C121F0C1A1604C4
:1036D0001E0506150F1F021C001D0010100D1F0CEB
:1036E00012111F101E0E1E1E021C0C120C1E0A04AC
:1036F000040A1E1C0202141E0A021F120E101E0EC5
:10370000100E1E1C1E120C1202141E1A1E16041B72
:1037100011001F00111B040406021F1F1F000000E0
:103720000000000000000000000000000000000099
:103730000000000000000000000000000000000089
:103740000000000102030406070809000000000150
:10375000020304004040404040404040404141415D
:103760004141404040404040404040404040404057
:10377000404040400502020202020202020202022E
:1037800002020202202020202020202020200202ED
:10379000020202020290909090909010101010106F
:1037A0001010101010101010101010101010100227
:1037B00002020202028888888888880808080808A7
:1037C000080808080808080808080808080808027F
:1037D0000202024054370008F837000800000020B9
:1037E00054000000E02300084C380008540000207A
:1037F0005C080000F023000800000000000000004A
:1038000001000000000000000000000000000000B7
:1038100000000000000000000000000000000000A8
:103820000000000000000000000000000000000098
:103830001000000000000000000000000400000074
:0C3840000100000000127A0000000000EF
:04000005080000B13E
:00000001FF
